{
  "contractName": "MyMotors",
  "abi": [
    {
      "inputs": [],
      "stateMutability": "nonpayable",
      "type": "constructor"
    },
    {
      "anonymous": false,
      "inputs": [
        {
          "indexed": true,
          "internalType": "address",
          "name": "owner",
          "type": "address"
        },
        {
          "indexed": true,
          "internalType": "address",
          "name": "approved",
          "type": "address"
        },
        {
          "indexed": true,
          "internalType": "uint256",
          "name": "tokenId",
          "type": "uint256"
        }
      ],
      "name": "Approval",
      "type": "event"
    },
    {
      "anonymous": false,
      "inputs": [
        {
          "indexed": true,
          "internalType": "address",
          "name": "owner",
          "type": "address"
        },
        {
          "indexed": true,
          "internalType": "address",
          "name": "operator",
          "type": "address"
        },
        {
          "indexed": false,
          "internalType": "bool",
          "name": "approved",
          "type": "bool"
        }
      ],
      "name": "ApprovalForAll",
      "type": "event"
    },
    {
      "anonymous": false,
      "inputs": [
        {
          "indexed": true,
          "internalType": "address",
          "name": "from",
          "type": "address"
        },
        {
          "indexed": true,
          "internalType": "address",
          "name": "to",
          "type": "address"
        },
        {
          "indexed": true,
          "internalType": "uint256",
          "name": "tokenId",
          "type": "uint256"
        }
      ],
      "name": "Transfer",
      "type": "event"
    },
    {
      "inputs": [
        {
          "internalType": "address",
          "name": "to",
          "type": "address"
        },
        {
          "internalType": "uint256",
          "name": "tokenId",
          "type": "uint256"
        }
      ],
      "name": "approve",
      "outputs": [],
      "stateMutability": "nonpayable",
      "type": "function"
    },
    {
      "inputs": [
        {
          "internalType": "address",
          "name": "owner",
          "type": "address"
        }
      ],
      "name": "balanceOf",
      "outputs": [
        {
          "internalType": "uint256",
          "name": "",
          "type": "uint256"
        }
      ],
      "stateMutability": "view",
      "type": "function",
      "constant": true
    },
    {
      "inputs": [
        {
          "internalType": "uint256",
          "name": "tokenId",
          "type": "uint256"
        }
      ],
      "name": "getApproved",
      "outputs": [
        {
          "internalType": "address",
          "name": "",
          "type": "address"
        }
      ],
      "stateMutability": "view",
      "type": "function",
      "constant": true
    },
    {
      "inputs": [
        {
          "internalType": "address",
          "name": "owner",
          "type": "address"
        },
        {
          "internalType": "address",
          "name": "operator",
          "type": "address"
        }
      ],
      "name": "isApprovedForAll",
      "outputs": [
        {
          "internalType": "bool",
          "name": "",
          "type": "bool"
        }
      ],
      "stateMutability": "view",
      "type": "function",
      "constant": true
    },
    {
      "inputs": [],
      "name": "name",
      "outputs": [
        {
          "internalType": "string",
          "name": "",
          "type": "string"
        }
      ],
      "stateMutability": "view",
      "type": "function",
      "constant": true
    },
    {
      "inputs": [
        {
          "internalType": "uint256",
          "name": "tokenId",
          "type": "uint256"
        }
      ],
      "name": "ownerOf",
      "outputs": [
        {
          "internalType": "address",
          "name": "",
          "type": "address"
        }
      ],
      "stateMutability": "view",
      "type": "function",
      "constant": true
    },
    {
      "inputs": [
        {
          "internalType": "address",
          "name": "from",
          "type": "address"
        },
        {
          "internalType": "address",
          "name": "to",
          "type": "address"
        },
        {
          "internalType": "uint256",
          "name": "tokenId",
          "type": "uint256"
        }
      ],
      "name": "safeTransferFrom",
      "outputs": [],
      "stateMutability": "nonpayable",
      "type": "function"
    },
    {
      "inputs": [
        {
          "internalType": "address",
          "name": "from",
          "type": "address"
        },
        {
          "internalType": "address",
          "name": "to",
          "type": "address"
        },
        {
          "internalType": "uint256",
          "name": "tokenId",
          "type": "uint256"
        },
        {
          "internalType": "bytes",
          "name": "_data",
          "type": "bytes"
        }
      ],
      "name": "safeTransferFrom",
      "outputs": [],
      "stateMutability": "nonpayable",
      "type": "function"
    },
    {
      "inputs": [
        {
          "internalType": "address",
          "name": "operator",
          "type": "address"
        },
        {
          "internalType": "bool",
          "name": "approved",
          "type": "bool"
        }
      ],
      "name": "setApprovalForAll",
      "outputs": [],
      "stateMutability": "nonpayable",
      "type": "function"
    },
    {
      "inputs": [
        {
          "internalType": "bytes4",
          "name": "interfaceId",
          "type": "bytes4"
        }
      ],
      "name": "supportsInterface",
      "outputs": [
        {
          "internalType": "bool",
          "name": "",
          "type": "bool"
        }
      ],
      "stateMutability": "view",
      "type": "function",
      "constant": true
    },
    {
      "inputs": [],
      "name": "symbol",
      "outputs": [
        {
          "internalType": "string",
          "name": "",
          "type": "string"
        }
      ],
      "stateMutability": "view",
      "type": "function",
      "constant": true
    },
    {
      "inputs": [
        {
          "internalType": "uint256",
          "name": "tokenId",
          "type": "uint256"
        }
      ],
      "name": "tokenURI",
      "outputs": [
        {
          "internalType": "string",
          "name": "",
          "type": "string"
        }
      ],
      "stateMutability": "view",
      "type": "function",
      "constant": true
    },
    {
      "inputs": [
        {
          "internalType": "address",
          "name": "from",
          "type": "address"
        },
        {
          "internalType": "address",
          "name": "to",
          "type": "address"
        },
        {
          "internalType": "uint256",
          "name": "tokenId",
          "type": "uint256"
        }
      ],
      "name": "transferFrom",
      "outputs": [],
      "stateMutability": "nonpayable",
      "type": "function"
    },
    {
      "inputs": [
        {
          "internalType": "address payable",
          "name": "_Manufacturer",
          "type": "address"
        },
        {
          "internalType": "address payable",
          "name": "_dealer",
          "type": "address"
        }
      ],
      "name": "configure",
      "outputs": [],
      "stateMutability": "nonpayable",
      "type": "function"
    },
    {
      "inputs": [],
      "name": "ManufactureCar",
      "outputs": [],
      "stateMutability": "nonpayable",
      "type": "function"
    },
    {
      "inputs": [
        {
          "internalType": "uint256",
          "name": "carId",
          "type": "uint256"
        }
      ],
      "name": "Approve",
      "outputs": [],
      "stateMutability": "nonpayable",
      "type": "function"
    },
    {
      "inputs": [
        {
          "internalType": "uint256",
          "name": "carId",
          "type": "uint256"
        },
        {
          "internalType": "uint256",
          "name": "price",
          "type": "uint256"
        }
      ],
      "name": "sellCar",
      "outputs": [
        {
          "internalType": "string",
          "name": "",
          "type": "string"
        },
        {
          "internalType": "uint256",
          "name": "",
          "type": "uint256"
        },
        {
          "internalType": "string",
          "name": "",
          "type": "string"
        },
        {
          "internalType": "enum MyMotors.STATE",
          "name": "",
          "type": "uint8"
        }
      ],
      "stateMutability": "nonpayable",
      "type": "function"
    },
    {
      "inputs": [
        {
          "internalType": "uint256",
          "name": "carId",
          "type": "uint256"
        },
        {
          "internalType": "uint256",
          "name": "amount",
          "type": "uint256"
        }
      ],
      "name": "buyCar",
      "outputs": [
        {
          "internalType": "string",
          "name": "",
          "type": "string"
        },
        {
          "internalType": "uint256",
          "name": "",
          "type": "uint256"
        },
        {
          "internalType": "string",
          "name": "",
          "type": "string"
        },
        {
          "internalType": "enum MyMotors.STATE",
          "name": "",
          "type": "uint8"
        }
      ],
      "stateMutability": "payable",
      "type": "function",
      "payable": true
    },
    {
      "inputs": [
        {
          "internalType": "uint256",
          "name": "carId",
          "type": "uint256"
        }
      ],
      "name": "getOwner",
      "outputs": [
        {
          "internalType": "address",
          "name": "",
          "type": "address"
        }
      ],
      "stateMutability": "view",
      "type": "function",
      "constant": true
    }
  ],
  "bytecode": "0x60806040523480156200001157600080fd5b506040518060400160405280600781526020017f4d794d6f746f72000000000000000000000000000000000000000000000000008152506040518060400160405280600381526020017f4d594d000000000000000000000000000000000000000000000000000000000081525081600090805190602001906200009692919062000101565b508060019080519060200190620000af92919062000101565b505050600160068190555033600960006101000a81548173ffffffffffffffffffffffffffffffffffffffff021916908373ffffffffffffffffffffffffffffffffffffffff16021790555062000216565b8280546200010f90620001b1565b90600052602060002090601f0160209004810192826200013357600085556200017f565b82601f106200014e57805160ff19168380011785556200017f565b828001600101855582156200017f579182015b828111156200017e57825182559160200191906001019062000161565b5b5090506200018e919062000192565b5090565b5b80821115620001ad57600081600090555060010162000193565b5090565b60006002820490506001821680620001ca57607f821691505b60208210811415620001e157620001e0620001e7565b5b50919050565b7f4e487b7100000000000000000000000000000000000000000000000000000000600052602260045260246000fd5b61368d80620002266000396000f3fe6080604052600436106101145760003560e01c806377b92c07116100a0578063b88d4fde11610064578063b88d4fde146103ba578063c41a360a146103e3578063c87b56dd14610420578063e470d5cf1461045d578063e985e9c51461048657610114565b806377b92c07146102e65780637bbef3551461030f57806393563bc81461032657806395d89b4114610366578063a22cb4651461039157610114565b8063095ea7b3116100e7578063095ea7b3146101f157806323b872dd1461021a57806342842e0e146102435780636352211e1461026c57806370a08231146102a957610114565b8063018cc90d1461011957806301ffc9a71461014c57806306fdde0314610189578063081812fc146101b4575b600080fd5b610133600480360381019061012e9190612571565b6104c3565b6040516101439493929190612ece565b60405180910390f35b34801561015857600080fd5b50610173600480360381019061016e91906124f6565b610872565b6040516101809190612e91565b60405180910390f35b34801561019557600080fd5b5061019e610954565b6040516101ab9190612eac565b60405180910390f35b3480156101c057600080fd5b506101db60048036038101906101d69190612548565b6109e6565b6040516101e89190612e2a565b60405180910390f35b3480156101fd57600080fd5b50610218600480360381019061021391906124ba565b610a6b565b005b34801561022657600080fd5b50610241600480360381019061023c91906123b4565b610b83565b005b34801561024f57600080fd5b5061026a600480360381019061026591906123b4565b610be3565b005b34801561027857600080fd5b50610293600480360381019061028e9190612548565b610c03565b6040516102a09190612e2a565b60405180910390f35b3480156102b557600080fd5b506102d060048036038101906102cb9190612313565b610cb5565b6040516102dd91906131c1565b60405180910390f35b3480156102f257600080fd5b5061030d60048036038101906103089190612548565b610d6d565b005b34801561031b57600080fd5b50610324610df6565b005b34801561033257600080fd5b5061034d60048036038101906103489190612571565b610eeb565b60405161035d9493929190612ece565b60405180910390f35b34801561037257600080fd5b5061037b6110e5565b6040516103889190612eac565b60405180910390f35b34801561039d57600080fd5b506103b860048036038101906103b3919061247e565b611177565b005b3480156103c657600080fd5b506103e160048036038101906103dc9190612403565b6112f8565b005b3480156103ef57600080fd5b5061040a60048036038101906104059190612548565b61135a565b6040516104179190612e2a565b60405180910390f35b34801561042c57600080fd5b5061044760048036038101906104429190612548565b611371565b6040516104549190612eac565b60405180910390f35b34801561046957600080fd5b50610484600480360381019061047f919061233c565b611418565b005b34801561049257600080fd5b506104ad60048036038101906104a89190612378565b611584565b6040516104ba9190612e91565b60405180910390f35b606060006060600060026006541415610511576040517f08c379a0000000000000000000000000000000000000000000000000000000008152600401610508906131a1565b60405180910390fd5b6002600681905550600760009054906101000a900473ffffffffffffffffffffffffffffffffffffffff1673ffffffffffffffffffffffffffffffffffffffff163373ffffffffffffffffffffffffffffffffffffffff1614156105aa576040517f08c379a00000000000000000000000000000000000000000000000000000000081526004016105a190613161565b60405180910390fd5b600860009054906101000a900473ffffffffffffffffffffffffffffffffffffffff1673ffffffffffffffffffffffffffffffffffffffff163373ffffffffffffffffffffffffffffffffffffffff16141561063b576040517f08c379a000000000000000000000000000000000000000000000000000000000815260040161063290612f81565b60405180910390fd5b600860009054906101000a900473ffffffffffffffffffffffffffffffffffffffff1673ffffffffffffffffffffffffffffffffffffffff1661067d87610c03565b73ffffffffffffffffffffffffffffffffffffffff161461069d57600080fd5b600a60008781526020019081526020016000205485146106f2576040517f08c379a00000000000000000000000000000000000000000000000000000000081526004016106e990613181565b60405180910390fd5b600860009054906101000a900473ffffffffffffffffffffffffffffffffffffffff1673ffffffffffffffffffffffffffffffffffffffff166108fc869081150290604051600060405180830381858888f1935050505015801561075a573d6000803e3d6000fd5b50610788600860009054906101000a900473ffffffffffffffffffffffffffffffffffffffff163388610be3565b6002600960146101000a81548160ff021916908360028111156107d4577f4e487b7100000000000000000000000000000000000000000000000000000000600052602160045260246000fd5b021790555085600960149054906101000a900460ff166040518060400160405280600581526020017f636172496400000000000000000000000000000000000000000000000000000081525091906040518060400160405280600681526020017f7374617475730000000000000000000000000000000000000000000000000000815250909350935093509350600160068190555092959194509250565b60007f80ac58cd000000000000000000000000000000000000000000000000000000007bffffffffffffffffffffffffffffffffffffffffffffffffffffffff1916827bffffffffffffffffffffffffffffffffffffffffffffffffffffffff1916148061093d57507f5b5e139f000000000000000000000000000000000000000000000000000000007bffffffffffffffffffffffffffffffffffffffffffffffffffffffff1916827bffffffffffffffffffffffffffffffffffffffffffffffffffffffff1916145b8061094d575061094c82611618565b5b9050919050565b60606000805461096390613428565b80601f016020809104026020016040519081016040528092919081815260200182805461098f90613428565b80156109dc5780601f106109b1576101008083540402835291602001916109dc565b820191906000526020600020905b8154815290600101906020018083116109bf57829003601f168201915b5050505050905090565b60006109f182611682565b610a30576040517f08c379a0000000000000000000000000000000000000000000000000000000008152600401610a2790613081565b60405180910390fd5b6004600083815260200190815260200160002060009054906101000a900473ffffffffffffffffffffffffffffffffffffffff169050919050565b6000610a7682610c03565b90508073ffffffffffffffffffffffffffffffffffffffff168373ffffffffffffffffffffffffffffffffffffffff161415610ae7576040517f08c379a0000000000000000000000000000000000000000000000000000000008152600401610ade90613101565b60405180910390fd5b8073ffffffffffffffffffffffffffffffffffffffff16610b066116ee565b73ffffffffffffffffffffffffffffffffffffffff161480610b355750610b3481610b2f6116ee565b611584565b5b610b74576040517f08c379a0000000000000000000000000000000000000000000000000000000008152600401610b6b90613001565b60405180910390fd5b610b7e83836116f6565b505050565b610b94610b8e6116ee565b826117af565b610bd3576040517f08c379a0000000000000000000000000000000000000000000000000000000008152600401610bca90613141565b60405180910390fd5b610bde83838361188d565b505050565b610bfe838383604051806020016040528060008152506112f8565b505050565b6000806002600084815260200190815260200160002060009054906101000a900473ffffffffffffffffffffffffffffffffffffffff169050600073ffffffffffffffffffffffffffffffffffffffff168173ffffffffffffffffffffffffffffffffffffffff161415610cac576040517f08c379a0000000000000000000000000000000000000000000000000000000008152600401610ca390613041565b60405180910390fd5b80915050919050565b60008073ffffffffffffffffffffffffffffffffffffffff168273ffffffffffffffffffffffffffffffffffffffff161415610d26576040517f08c379a0000000000000000000000000000000000000000000000000000000008152600401610d1d90613021565b60405180910390fd5b600360008373ffffffffffffffffffffffffffffffffffffffff1673ffffffffffffffffffffffffffffffffffffffff168152602001908152602001600020549050919050565b600760009054906101000a900473ffffffffffffffffffffffffffffffffffffffff1673ffffffffffffffffffffffffffffffffffffffff163373ffffffffffffffffffffffffffffffffffffffff1614610dc757600080fd5b610df3600860009054906101000a900473ffffffffffffffffffffffffffffffffffffffff1682610a6b565b50565b60026006541415610e3c576040517f08c379a0000000000000000000000000000000000000000000000000000000008152600401610e33906131a1565b60405180910390fd5b6002600681905550600760009054906101000a900473ffffffffffffffffffffffffffffffffffffffff1673ffffffffffffffffffffffffffffffffffffffff163373ffffffffffffffffffffffffffffffffffffffff1614610ed4576040517f08c379a0000000000000000000000000000000000000000000000000000000008152600401610ecb90613121565b60405180910390fd5b610edd33611ae9565b505050506001600681905550565b606060006060600060026006541415610f39576040517f08c379a0000000000000000000000000000000000000000000000000000000008152600401610f30906131a1565b60405180910390fd5b6002600681905550600860009054906101000a900473ffffffffffffffffffffffffffffffffffffffff1673ffffffffffffffffffffffffffffffffffffffff163373ffffffffffffffffffffffffffffffffffffffff1614610f9b57600080fd5b610fa486611682565b610fe3576040517f08c379a0000000000000000000000000000000000000000000000000000000008152600401610fda906130a1565b60405180910390fd5b84600a6000888152602001908152602001600020819055506001600960146101000a81548160ff02191690836002811115611047577f4e487b7100000000000000000000000000000000000000000000000000000000600052602160045260246000fd5b021790555085600960149054906101000a900460ff166040518060400160405280600581526020017f636172496400000000000000000000000000000000000000000000000000000081525091906040518060400160405280600681526020017f7374617475730000000000000000000000000000000000000000000000000000815250909350935093509350600160068190555092959194509250565b6060600180546110f490613428565b80601f016020809104026020016040519081016040528092919081815260200182805461112090613428565b801561116d5780601f106111425761010080835404028352916020019161116d565b820191906000526020600020905b81548152906001019060200180831161115057829003601f168201915b5050505050905090565b61117f6116ee565b73ffffffffffffffffffffffffffffffffffffffff168273ffffffffffffffffffffffffffffffffffffffff1614156111ed576040517f08c379a00000000000000000000000000000000000000000000000000000000081526004016111e490612fc1565b60405180910390fd5b80600560006111fa6116ee565b73ffffffffffffffffffffffffffffffffffffffff1673ffffffffffffffffffffffffffffffffffffffff16815260200190815260200160002060008473ffffffffffffffffffffffffffffffffffffffff1673ffffffffffffffffffffffffffffffffffffffff16815260200190815260200160002060006101000a81548160ff0219169083151502179055508173ffffffffffffffffffffffffffffffffffffffff166112a76116ee565b73ffffffffffffffffffffffffffffffffffffffff167f17307eab39ab6107e8899845ad3d59bd9653f200f220920489ca2b5937696c31836040516112ec9190612e91565b60405180910390a35050565b6113096113036116ee565b836117af565b611348576040517f08c379a000000000000000000000000000000000000000000000000000000000815260040161133f90613141565b60405180910390fd5b61135484848484611bf3565b50505050565b60008061136683610c03565b905080915050919050565b606061137c82611682565b6113bb576040517f08c379a00000000000000000000000000000000000000000000000000000000081526004016113b2906130e1565b60405180910390fd5b60006113c5611c4f565b905060008151116113e55760405180602001604052806000815250611410565b806113ef84611c66565b604051602001611400929190612e06565b6040516020818303038152906040525b915050919050565b6002600654141561145e576040517f08c379a0000000000000000000000000000000000000000000000000000000008152600401611455906131a1565b60405180910390fd5b6002600681905550600960009054906101000a900473ffffffffffffffffffffffffffffffffffffffff1673ffffffffffffffffffffffffffffffffffffffff163373ffffffffffffffffffffffffffffffffffffffff16146114f6576040517f08c379a00000000000000000000000000000000000000000000000000000000081526004016114ed90612f41565b60405180910390fd5b81600760006101000a81548173ffffffffffffffffffffffffffffffffffffffff021916908373ffffffffffffffffffffffffffffffffffffffff16021790555080600860006101000a81548173ffffffffffffffffffffffffffffffffffffffff021916908373ffffffffffffffffffffffffffffffffffffffff16021790555060016006819055505050565b6000600560008473ffffffffffffffffffffffffffffffffffffffff1673ffffffffffffffffffffffffffffffffffffffff16815260200190815260200160002060008373ffffffffffffffffffffffffffffffffffffffff1673ffffffffffffffffffffffffffffffffffffffff16815260200190815260200160002060009054906101000a900460ff16905092915050565b60007f01ffc9a7000000000000000000000000000000000000000000000000000000007bffffffffffffffffffffffffffffffffffffffffffffffffffffffff1916827bffffffffffffffffffffffffffffffffffffffffffffffffffffffff1916149050919050565b60008073ffffffffffffffffffffffffffffffffffffffff166002600084815260200190815260200160002060009054906101000a900473ffffffffffffffffffffffffffffffffffffffff1673ffffffffffffffffffffffffffffffffffffffff1614159050919050565b600033905090565b816004600083815260200190815260200160002060006101000a81548173ffffffffffffffffffffffffffffffffffffffff021916908373ffffffffffffffffffffffffffffffffffffffff160217905550808273ffffffffffffffffffffffffffffffffffffffff1661176983610c03565b73ffffffffffffffffffffffffffffffffffffffff167f8c5be1e5ebec7d5bd14f71427d1e84f3dd0314c0f7b2291e5b200ac8c7c3b92560405160405180910390a45050565b60006117ba82611682565b6117f9576040517f08c379a00000000000000000000000000000000000000000000000000000000081526004016117f090612fe1565b60405180910390fd5b600061180483610c03565b90508073ffffffffffffffffffffffffffffffffffffffff168473ffffffffffffffffffffffffffffffffffffffff16148061187357508373ffffffffffffffffffffffffffffffffffffffff1661185b846109e6565b73ffffffffffffffffffffffffffffffffffffffff16145b8061188457506118838185611584565b5b91505092915050565b8273ffffffffffffffffffffffffffffffffffffffff166118ad82610c03565b73ffffffffffffffffffffffffffffffffffffffff1614611903576040517f08c379a00000000000000000000000000000000000000000000000000000000081526004016118fa906130c1565b60405180910390fd5b600073ffffffffffffffffffffffffffffffffffffffff168273ffffffffffffffffffffffffffffffffffffffff161415611973576040517f08c379a000000000000000000000000000000000000000000000000000000000815260040161196a90612fa1565b60405180910390fd5b61197e838383611e13565b6119896000826116f6565b6001600360008573ffffffffffffffffffffffffffffffffffffffff1673ffffffffffffffffffffffffffffffffffffffff16815260200190815260200160002060008282546119d99190613307565b925050819055506001600360008473ffffffffffffffffffffffffffffffffffffffff1673ffffffffffffffffffffffffffffffffffffffff1681526020019081526020016000206000828254611a309190613280565b92505081905550816002600083815260200190815260200160002060006101000a81548173ffffffffffffffffffffffffffffffffffffffff021916908373ffffffffffffffffffffffffffffffffffffffff160217905550808273ffffffffffffffffffffffffffffffffffffffff168473ffffffffffffffffffffffffffffffffffffffff167fddf252ad1be2c89b69c2b068fc378daa952ba7f163c4a11628f55a4df523b3ef60405160405180910390a4505050565b606060006060600080611afc600b611e18565b9050611b088682611e26565b611b12600b611e44565b6000600960146101000a81548160ff02191690836002811115611b5e577f4e487b7100000000000000000000000000000000000000000000000000000000600052602160045260246000fd5b021790555080600960149054906101000a900460ff166040518060400160405280600581526020017f636172496400000000000000000000000000000000000000000000000000000081525091906040518060400160405280600681526020017f7374617475730000000000000000000000000000000000000000000000000000815250909450945094509450509193509193565b611bfe84848461188d565b611c0a84848484611e5a565b611c49576040517f08c379a0000000000000000000000000000000000000000000000000000000008152600401611c4090612f21565b60405180910390fd5b50505050565b606060405180602001604052806000815250905090565b60606000821415611cae576040518060400160405280600181526020017f30000000000000000000000000000000000000000000000000000000000000008152509050611e0e565b600082905060005b60008214611ce0578080611cc99061345a565b915050600a82611cd991906132d6565b9150611cb6565b60008167ffffffffffffffff811115611d22577f4e487b7100000000000000000000000000000000000000000000000000000000600052604160045260246000fd5b6040519080825280601f01601f191660200182016040528015611d545781602001600182028036833780820191505090505b5090505b60008514611e0757600182611d6d9190613307565b9150600a85611d7c91906134a3565b6030611d889190613280565b60f81b818381518110611dc4577f4e487b7100000000000000000000000000000000000000000000000000000000600052603260045260246000fd5b60200101907effffffffffffffffffffffffffffffffffffffffffffffffffffffffffffff1916908160001a905350600a85611e0091906132d6565b9450611d58565b8093505050505b919050565b505050565b600081600001549050919050565b611e40828260405180602001604052806000815250611ff1565b5050565b6001816000016000828254019250508190555050565b6000611e7b8473ffffffffffffffffffffffffffffffffffffffff1661204c565b15611fe4578373ffffffffffffffffffffffffffffffffffffffff1663150b7a02611ea46116ee565b8786866040518563ffffffff1660e01b8152600401611ec69493929190612e45565b602060405180830381600087803b158015611ee057600080fd5b505af1925050508015611f1157506040513d601f19601f82011682018060405250810190611f0e919061251f565b60015b611f94573d8060008114611f41576040519150601f19603f3d011682016040523d82523d6000602084013e611f46565b606091505b50600081511415611f8c576040517f08c379a0000000000000000000000000000000000000000000000000000000008152600401611f8390612f21565b60405180910390fd5b805181602001fd5b63150b7a0260e01b7bffffffffffffffffffffffffffffffffffffffffffffffffffffffff1916817bffffffffffffffffffffffffffffffffffffffffffffffffffffffff191614915050611fe9565b600190505b949350505050565b611ffb838361205f565b6120086000848484611e5a565b612047576040517f08c379a000000000000000000000000000000000000000000000000000000000815260040161203e90612f21565b60405180910390fd5b505050565b600080823b905060008111915050919050565b600073ffffffffffffffffffffffffffffffffffffffff168273ffffffffffffffffffffffffffffffffffffffff1614156120cf576040517f08c379a00000000000000000000000000000000000000000000000000000000081526004016120c690613061565b60405180910390fd5b6120d881611682565b15612118576040517f08c379a000000000000000000000000000000000000000000000000000000000815260040161210f90612f61565b60405180910390fd5b61212460008383611e13565b6001600360008473ffffffffffffffffffffffffffffffffffffffff1673ffffffffffffffffffffffffffffffffffffffff16815260200190815260200160002060008282546121749190613280565b92505081905550816002600083815260200190815260200160002060006101000a81548173ffffffffffffffffffffffffffffffffffffffff021916908373ffffffffffffffffffffffffffffffffffffffff160217905550808273ffffffffffffffffffffffffffffffffffffffff16600073ffffffffffffffffffffffffffffffffffffffff167fddf252ad1be2c89b69c2b068fc378daa952ba7f163c4a11628f55a4df523b3ef60405160405180910390a45050565b600061224061223b8461320d565b6131dc565b90508281526020810184848401111561225857600080fd5b6122638482856133e6565b509392505050565b60008135905061227a816135e4565b92915050565b60008135905061228f816135fb565b92915050565b6000813590506122a481613612565b92915050565b6000813590506122b981613629565b92915050565b6000815190506122ce81613629565b92915050565b600082601f8301126122e557600080fd5b81356122f584826020860161222d565b91505092915050565b60008135905061230d81613640565b92915050565b60006020828403121561232557600080fd5b60006123338482850161226b565b91505092915050565b6000806040838503121561234f57600080fd5b600061235d85828601612280565b925050602061236e85828601612280565b9150509250929050565b6000806040838503121561238b57600080fd5b60006123998582860161226b565b92505060206123aa8582860161226b565b9150509250929050565b6000806000606084860312156123c957600080fd5b60006123d78682870161226b565b93505060206123e88682870161226b565b92505060406123f9868287016122fe565b9150509250925092565b6000806000806080858703121561241957600080fd5b60006124278782880161226b565b94505060206124388782880161226b565b9350506040612449878288016122fe565b925050606085013567ffffffffffffffff81111561246657600080fd5b612472878288016122d4565b91505092959194509250565b6000806040838503121561249157600080fd5b600061249f8582860161226b565b92505060206124b085828601612295565b9150509250929050565b600080604083850312156124cd57600080fd5b60006124db8582860161226b565b92505060206124ec858286016122fe565b9150509250929050565b60006020828403121561250857600080fd5b6000612516848285016122aa565b91505092915050565b60006020828403121561253157600080fd5b600061253f848285016122bf565b91505092915050565b60006020828403121561255a57600080fd5b6000612568848285016122fe565b91505092915050565b6000806040838503121561258457600080fd5b6000612592858286016122fe565b92505060206125a3858286016122fe565b9150509250929050565b6125b68161333b565b82525050565b6125c58161335f565b82525050565b60006125d68261323d565b6125e08185613253565b93506125f08185602086016133f5565b6125f9816135bf565b840191505092915050565b61260d816133d4565b82525050565b600061261e82613248565b6126288185613264565b93506126388185602086016133f5565b612641816135bf565b840191505092915050565b600061265782613248565b6126618185613275565b93506126718185602086016133f5565b80840191505092915050565b600061268a603283613264565b91507f4552433732313a207472616e7366657220746f206e6f6e20455243373231526560008301527f63656976657220696d706c656d656e74657200000000000000000000000000006020830152604082019050919050565b60006126f0602583613264565b91507f4d794d6f746f72733a204f6e6c79204f776e65722043616e20436f6e6669677560008301527f72652e2e2e0000000000000000000000000000000000000000000000000000006020830152604082019050919050565b6000612756601c83613264565b91507f4552433732313a20746f6b656e20616c7265616479206d696e746564000000006000830152602082019050919050565b6000612796601b83613264565b91507f4465616c657220616c7265616479204f776e73207468652063617200000000006000830152602082019050919050565b60006127d6602483613264565b91507f4552433732313a207472616e7366657220746f20746865207a65726f2061646460008301527f72657373000000000000000000000000000000000000000000000000000000006020830152604082019050919050565b600061283c601983613264565b91507f4552433732313a20617070726f766520746f2063616c6c6572000000000000006000830152602082019050919050565b600061287c602c83613264565b91507f4552433732313a206f70657261746f7220717565727920666f72206e6f6e657860008301527f697374656e7420746f6b656e00000000000000000000000000000000000000006020830152604082019050919050565b60006128e2603883613264565b91507f4552433732313a20617070726f76652063616c6c6572206973206e6f74206f7760008301527f6e6572206e6f7220617070726f76656420666f7220616c6c00000000000000006020830152604082019050919050565b6000612948602a83613264565b91507f4552433732313a2062616c616e636520717565727920666f7220746865207a6560008301527f726f2061646472657373000000000000000000000000000000000000000000006020830152604082019050919050565b60006129ae602983613264565b91507f4552433732313a206f776e657220717565727920666f72206e6f6e657869737460008301527f656e7420746f6b656e00000000000000000000000000000000000000000000006020830152604082019050919050565b6000612a14602083613264565b91507f4552433732313a206d696e7420746f20746865207a65726f20616464726573736000830152602082019050919050565b6000612a54602c83613264565b91507f4552433732313a20617070726f76656420717565727920666f72206e6f6e657860008301527f697374656e7420746f6b656e00000000000000000000000000000000000000006020830152604082019050919050565b6000612aba602c83613264565b91507f4552433732314d657461646174613a2055524920736574206f66206e6f6e657860008301527f697374656e7420746f6b656e00000000000000000000000000000000000000006020830152604082019050919050565b6000612b20602983613264565b91507f4552433732313a207472616e73666572206f6620746f6b656e2074686174206960008301527f73206e6f74206f776e00000000000000000000000000000000000000000000006020830152604082019050919050565b6000612b86602f83613264565b91507f4552433732314d657461646174613a2055524920717565727920666f72206e6f60008301527f6e6578697374656e7420746f6b656e00000000000000000000000000000000006020830152604082019050919050565b6000612bec602183613264565b91507f4552433732313a20617070726f76616c20746f2063757272656e74206f776e6560008301527f72000000000000000000000000000000000000000000000000000000000000006020830152604082019050919050565b6000612c52602883613264565b91507f4d794d6f746f72733a204f6e6c79204f776e65722043616e204372656174652060008301527f61204361722e2e2e0000000000000000000000000000000000000000000000006020830152604082019050919050565b6000612cb8603183613264565b91507f4552433732313a207472616e736665722063616c6c6572206973206e6f74206f60008301527f776e6572206e6f7220617070726f7665640000000000000000000000000000006020830152604082019050919050565b6000612d1e601a83613264565b91507f4d616e7566616374757265722043616e742050757263686173650000000000006000830152602082019050919050565b6000612d5e602d83613264565b91507f416d6f756e7420446f204e6f74204d617463682057697468205468652053657460008301527f205072696365204f6620436172000000000000000000000000000000000000006020830152604082019050919050565b6000612dc4601f83613264565b91507f5265656e7472616e637947756172643a207265656e7472616e742063616c6c006000830152602082019050919050565b612e00816133ca565b82525050565b6000612e12828561264c565b9150612e1e828461264c565b91508190509392505050565b6000602082019050612e3f60008301846125ad565b92915050565b6000608082019050612e5a60008301876125ad565b612e6760208301866125ad565b612e746040830185612df7565b8181036060830152612e8681846125cb565b905095945050505050565b6000602082019050612ea660008301846125bc565b92915050565b60006020820190508181036000830152612ec68184612613565b905092915050565b60006080820190508181036000830152612ee88187612613565b9050612ef76020830186612df7565b8181036040830152612f098185612613565b9050612f186060830184612604565b95945050505050565b60006020820190508181036000830152612f3a8161267d565b9050919050565b60006020820190508181036000830152612f5a816126e3565b9050919050565b60006020820190508181036000830152612f7a81612749565b9050919050565b60006020820190508181036000830152612f9a81612789565b9050919050565b60006020820190508181036000830152612fba816127c9565b9050919050565b60006020820190508181036000830152612fda8161282f565b9050919050565b60006020820190508181036000830152612ffa8161286f565b9050919050565b6000602082019050818103600083015261301a816128d5565b9050919050565b6000602082019050818103600083015261303a8161293b565b9050919050565b6000602082019050818103600083015261305a816129a1565b9050919050565b6000602082019050818103600083015261307a81612a07565b9050919050565b6000602082019050818103600083015261309a81612a47565b9050919050565b600060208201905081810360008301526130ba81612aad565b9050919050565b600060208201905081810360008301526130da81612b13565b9050919050565b600060208201905081810360008301526130fa81612b79565b9050919050565b6000602082019050818103600083015261311a81612bdf565b9050919050565b6000602082019050818103600083015261313a81612c45565b9050919050565b6000602082019050818103600083015261315a81612cab565b9050919050565b6000602082019050818103600083015261317a81612d11565b9050919050565b6000602082019050818103600083015261319a81612d51565b9050919050565b600060208201905081810360008301526131ba81612db7565b9050919050565b60006020820190506131d66000830184612df7565b92915050565b6000604051905081810181811067ffffffffffffffff8211171561320357613202613590565b5b8060405250919050565b600067ffffffffffffffff82111561322857613227613590565b5b601f19601f8301169050602081019050919050565b600081519050919050565b600081519050919050565b600082825260208201905092915050565b600082825260208201905092915050565b600081905092915050565b600061328b826133ca565b9150613296836133ca565b9250827fffffffffffffffffffffffffffffffffffffffffffffffffffffffffffffffff038211156132cb576132ca6134d4565b5b828201905092915050565b60006132e1826133ca565b91506132ec836133ca565b9250826132fc576132fb613503565b5b828204905092915050565b6000613312826133ca565b915061331d836133ca565b9250828210156133305761332f6134d4565b5b828203905092915050565b6000613346826133aa565b9050919050565b6000613358826133aa565b9050919050565b60008115159050919050565b60007fffffffff0000000000000000000000000000000000000000000000000000000082169050919050565b60008190506133a5826135d0565b919050565b600073ffffffffffffffffffffffffffffffffffffffff82169050919050565b6000819050919050565b60006133df82613397565b9050919050565b82818337600083830152505050565b60005b838110156134135780820151818401526020810190506133f8565b83811115613422576000848401525b50505050565b6000600282049050600182168061344057607f821691505b6020821081141561345457613453613561565b5b50919050565b6000613465826133ca565b91507fffffffffffffffffffffffffffffffffffffffffffffffffffffffffffffffff821415613498576134976134d4565b5b600182019050919050565b60006134ae826133ca565b91506134b9836133ca565b9250826134c9576134c8613503565b5b828206905092915050565b7f4e487b7100000000000000000000000000000000000000000000000000000000600052601160045260246000fd5b7f4e487b7100000000000000000000000000000000000000000000000000000000600052601260045260246000fd5b7f4e487b7100000000000000000000000000000000000000000000000000000000600052602160045260246000fd5b7f4e487b7100000000000000000000000000000000000000000000000000000000600052602260045260246000fd5b7f4e487b7100000000000000000000000000000000000000000000000000000000600052604160045260246000fd5b6000601f19601f8301169050919050565b600381106135e1576135e0613532565b5b50565b6135ed8161333b565b81146135f857600080fd5b50565b6136048161334d565b811461360f57600080fd5b50565b61361b8161335f565b811461362657600080fd5b50565b6136328161336b565b811461363d57600080fd5b50565b613649816133ca565b811461365457600080fd5b5056fea264697066735822122098fd5e0983ac6c9a12b9137632a1c76e7240586de8292a95a5d450d6d581bc3d64736f6c63430008000033",
  "immutableReferences": {},
  "source": "// SPDX-License-Identifier: MIT\r\npragma solidity >=0.4.22 <0.9.0;\r\n\r\nimport \"@openzeppelin/contracts/token/ERC721/ERC721.sol\";\r\nimport {Counters} from \"@openzeppelin/contracts/utils/Counters.sol\";\r\nimport {ERC721Burnable} from \"@openzeppelin/contracts/token/ERC721/extensions/ERC721Burnable.sol\";\r\nimport {\r\n    ReentrancyGuard\r\n} from \"@openzeppelin/contracts/security/ReentrancyGuard.sol\";\r\n\r\n\r\n\r\n\r\ncontract MyMotors is ERC721, ReentrancyGuard{\r\n    using Counters for Counters.Counter;\r\n\r\n    address payable Manufacturer;\r\n    address payable Dealer;\r\n    address private _owner;\r\n\r\n    enum STATE {\r\n        CREATED,READY_FOR_SALE,SOLD\r\n    }\r\n    STATE state;\r\n\r\n    mapping (uint256 => uint256) private _carPrice;\r\n\r\n\r\n    Counters.Counter  _carIdTracker;\r\n\r\n    constructor() ERC721(\"MyMotor\",\"MYM\") {\r\n        _owner = msg.sender;\r\n    }\r\n\r\n    function configure(address payable _Manufacturer, address payable _dealer) external nonReentrant{\r\n         require(msg.sender == _owner, \"MyMotors: Only Owner Can Configure...\");\r\n         Manufacturer = _Manufacturer;\r\n         Dealer= _dealer;\r\n     \r\n    }\r\n\r\n    function ManufactureCar() public nonReentrant {\r\n        require(msg.sender == Manufacturer, \"MyMotors: Only Owner Can Create a Car...\");\r\n      _mintCar(msg.sender);\r\n\r\n    }\r\n    \r\n\r\n\r\n    function _mintCar(address creator) internal returns (string memory, uint, string memory, STATE) {\r\n        \r\n        uint256 carId = _carIdTracker.current();\r\n        _safeMint(creator, carId);\r\n        _carIdTracker.increment();\r\n        state = STATE.CREATED;\r\n        return (\"carId\",carId,\"status\",state); \r\n    }\r\n\r\n    function Approve(uint256 carId) public {\r\n        //require manufacture to approve dealer to sell\r\n        require(msg.sender == Manufacturer);\r\n        approve(Dealer, carId);\r\n    }\r\n\r\n    function sellCar(uint256 carId, uint256 price) public nonReentrant returns (string memory, uint, string memory, STATE) {\r\n        require(msg.sender == Dealer);\r\n        require(_exists(carId), \"ERC721Metadata: URI set of nonexistent token\");\r\n        _carPrice[carId] = price;\r\n        state = STATE.READY_FOR_SALE;\r\n        return (\"carId\",carId,\"status\",state);\r\n    }\r\n\r\n    function buyCar(uint256 carId, uint256 amount) public payable nonReentrant returns (string memory, uint, string memory, STATE) {\r\n        require(msg.sender != Manufacturer,\"Manufacturer Cant Purchase\");\r\n        require(msg.sender != Dealer,\"Dealer already Owns the car\");\r\n        require(ownerOf(carId)== Dealer);\r\n        require(amount == _carPrice[carId],\"Amount Do Not Match With The Set Price Of Car\");\r\n        Dealer.transfer(amount);\r\n        safeTransferFrom(Dealer, msg.sender, carId);\r\n        state = STATE.SOLD;\r\n        return (\"carId\",carId,\"status\",state);     \r\n    }\r\n    function getOwner(uint256 carId) public view returns(address) {\r\n        address Owner = ownerOf(carId);\r\n        return (Owner);\r\n    }\r\n\r\n\r\n\r\n}",
  "sourcePath": "C:/Users/Rahul/Documents/GitHub/MyMotorsCo/contracts/MyMotors.sol",
  "compiler": {
    "name": "solc",
    "version": "0.8.0+commit.c7dfd78e.Emscripten.clang"
  },
  "schemaVersion": "3.4.1",
  "updatedAt": "2021-06-09T19:16:16.813Z",
  "networkType": "ethereum",
  "devdoc": {
    "kind": "dev",
    "methods": {
      "approve(address,uint256)": {
        "details": "See {IERC721-approve}."
      },
      "balanceOf(address)": {
        "details": "See {IERC721-balanceOf}."
      },
      "getApproved(uint256)": {
        "details": "See {IERC721-getApproved}."
      },
      "isApprovedForAll(address,address)": {
        "details": "See {IERC721-isApprovedForAll}."
      },
      "name()": {
        "details": "See {IERC721Metadata-name}."
      },
      "ownerOf(uint256)": {
        "details": "See {IERC721-ownerOf}."
      },
      "safeTransferFrom(address,address,uint256)": {
        "details": "See {IERC721-safeTransferFrom}."
      },
      "safeTransferFrom(address,address,uint256,bytes)": {
        "details": "See {IERC721-safeTransferFrom}."
      },
      "setApprovalForAll(address,bool)": {
        "details": "See {IERC721-setApprovalForAll}."
      },
      "supportsInterface(bytes4)": {
        "details": "See {IERC165-supportsInterface}."
      },
      "symbol()": {
        "details": "See {IERC721Metadata-symbol}."
      },
      "tokenURI(uint256)": {
        "details": "See {IERC721Metadata-tokenURI}."
      },
      "transferFrom(address,address,uint256)": {
        "details": "See {IERC721-transferFrom}."
      }
    },
    "version": 1
  },
  "userdoc": {
    "kind": "user",
    "methods": {},
    "version": 1
  }
}